:100000000C9438000C941B010C9467010C9455005F
:100010000C9455000C9455000C9455000C9455000C
:100020000C9455000C9455000C9455000C945500FC
:100030000C9455000C9455000C9455000C945500EC
:100040000C9455000C9455000C9455000C945500DC
:100050000C9455000C9455000C9455000C945500CC
:100060000C9455000C9455000C9455000C945500BC
:1000700011241FBECFEFD0E1DEBFCDBF12E0A0E064
:10008000B1E0EEE5FEE002C005900D92A833B107A5
:10009000D9F717E0A8E3B2E001C01D92A036B1077E
:1000A000E1F70E94F8010C942D070C940000909148
:1000B000C00095FFFCCF8093C600089511B88FEA69
:1000C00087B983E38AB98FEF84B9E89AE9E6F0E06B
:1000D0008081816080838081808381E8809380003B
:1000E000EAE7F0E08BEE8083ACE7B0E08C918064CF
:1000F0008C938081806180830895EF92FF92CF93EB
:10010000DF93E82EE7017E01F92EE70105C099276C
:1001100087FD90950E94570089918823C1F7DF9150
:10012000CF91FF90EF9008958091C00087FFFCCFA2
:100130008091C60008959093C5008093C40088E123
:100140008093C10086E08093C2000895482F6536F1
:10015000710570F42FEF30E0629FC001639F900D36
:10016000729F900D112464E670E00E94CF0602C0D9
:1001700060E070E04C3429F470938900609388004B
:100180000895423521F470938B0060938A0008959E
:10019000409A41985F985E9A08954098419A5F9A74
:1001A0005E980895409841985F985E98089520E081
:1001B00030E006C02F5F3F4F82E08A95F1F700C024
:1001C0003799F8CFC901089588B188B9479885E073
:1001D0008A95F1F70000479A8DE08A95F1F70000C3
:1001E000479888B188B90E94D70008950F931F934C
:1001F000CF93DF9304E110E0C0E0D0E00E94E40080
:10020000C80FD91F8FE097E20197F1F700C00000F7
:100210000150104099F7CE0164E170E00E94CF06D2
:10022000CB016AE370E00E94CF06CB01DF91CF9152
:100230001F910F9108951F920F920FB60F921124E4
:100240008F939F93AF93BF934A9B38C04E991CC026
:1002500081E090E0909339028093380280913A02D5
:1002600090913B02A0913C02B0913D020196A11DEC
:10027000B11D80933A0290933B02A0933C02B0934D
:100280003D028FEF85B91AC08FEF9FEF909339022F
:100290008093380280913E0290913F02A0914002EB
:1002A000B09141020196A11DB11D80933E02909331
:1002B0003F02A0934002B093410215B8BF91AF91A5
:1002C0009F918F910F900FBE0F901F9018951F92C6
:1002D0000F920FB60F9211248F939F93AF93BF93FA
:1002E0004B9B35C04F991AC081E090E09093430238
:1002F000809342028091440290914502A09146026F
:10030000B09147020196A11DB11D809344029093C4
:100310004502A0934602B093470219C08FEF9FEFAA
:100320009093430280934202809148029091490247
:10033000A0914A02B0914B020196A11DB11D80937C
:10034000480290934902A0934A02B0934B02BF9196
:10035000AF919F918F910F900FBE0F901F901895A6
:1003600090917C00982B90937C0080917C0080641D
:1003700080937C008BEE80937A0001C00000809116
:100380007A0084FFFBCF80917A00806180937A00AD
:100390002091780030917900C9010895FF920F9360
:1003A0001F93CF93DF938C0198E2F92EC0E0D0E049
:1003B000C8010E94B001C80FD91FFA94C9F70230D2
:1003C000110569F4CE0168E270E00E94CF06660F65
:1003D000771F645B7D4FFB012081318102C02FEFCD
:1003E0003FEFC901DF91CF911F910F91FF900895C9
:1003F0000E945E0083E390E00E949B004098419839
:100400005F985E98789480E091E00E947D0006C03D
:100410008FEC97E00197F1F700C00000369BF8CF12
:100420008EE191E00E947D0006C08FEC97E001977D
:10043000F1F700C00000369BF8CF82E090E00E9408
:10044000CE019C01B901882777FD8095982F0E94E5
:1004500033040E942F02862F0E945700ECCFEF92A8
:10046000FF920F931F937B018C0120E030E040E06E
:100470005FE40E94030487FD11C0C801B70120E0BA
:1004800030E040E05FE40E94D2030E9493049B01AD
:10049000AC01205030404040504806C0C801B70170
:1004A0000E9493049B01AC01B901CA011F910F91F5
:1004B000FF90EF900895A0E0B0E0E1E6F2E00C9448
:1004C000FA06FC01EA018081823008F438C1DB01C0
:1004D0009C91923008F430C1843059F4943009F082
:1004E0002EC1918111968C911197981709F021C115
:1004F00026C1943009F420C19230B1F4823009F061
:100500001EC1CA01AF0128E0DA010D90AD01DC0186
:100510000D92CD012150C1F7DB0111968C911197FD
:100520009181892389830AC1823009F405C1C2807F
:10053000D380DB0112966D907C90139724813581D6
:10054000468157811496ED90FD900D911C9117975F
:10055000C601861997095C0197FF04C0AA24BB2431
:10056000A81AB90AB0E2AB16B1040CF061C01816B3
:1005700019066CF5370148010A2C04C0969487943B
:10058000779467940A94D2F781E090E0A0E0B0E01D
:100590000A2C04C0880F991FAA1FBB1F0A94D2F708
:1005A0000197A109B1098E219F21A023B123EE2437
:1005B000FF248701E3940097A105B10519F4EE2407
:1005C000FF248701E628F728082919293CC000974D
:1005D000D1F1CA0CDB1C39014A010A2C04C09694E3
:1005E0008794779467940A94D2F781E090E0A0E032
:1005F000B0E00A2C04C0880F991FAA1FBB1F0A94E1
:10060000D2F70197A109B10982239323A423B5232B
:1006100021E030E040E050E00097A105B10519F479
:1006200020E030E0A90126293729482959290BC0A3
:100630006C147D0424F4EE24FF24870104C06301BC
:1006400020E030E0A9018181FB019181891709F443
:1006500045C0882349F0D801C701821B930BA40B26
:10066000B50B9C01AD0104C02E193F09400B510B85
:1006700057FD04C01982DB82CA820BC081E08983E6
:10068000DB82CA8250954095309521953F4F4F4F60
:100690005F4F2C833D834E835F830DC0880F991F6E
:1006A000AA1FBB1F8C839D83AE83BF838A819B81DE
:1006B00001979B838A838C819D81AE81BF819C0140
:1006C000AD0121503040404050402F3FEFEF3E07FA
:1006D000EFEF4E07EFE35E0708F30BC08983DB8281
:1006E000CA822E0D3F1D401F511F2C833D834E8318
:1006F0005F8383E088832C813D814E815F8157FF3A
:100700001DC0DA01C90181709070A070B07056955B
:10071000479537952795822B932BA42BB52B8C834C
:100720009D83AE83BF838A819B8101969B838A834D
:1007300005C0E0E3F1E003C0FB0101C0FE01CF0111
:10074000CDB7DEB7EEE00C941607A0E2B0E0EBEA1E
:10075000F3E00C94020769837A838B839C832D8357
:100760003E834F83588789E0E82EF12CEC0EFD1E66
:10077000CE010196B7010E940D068E010F5E1F4F3C
:10078000CE010596B8010E940D06C701B801AE0161
:10079000475E5F4F0E945B020E943F05A096E6E025
:1007A0000C941E07A0E2B0E0E8EDF3E00C94020721
:1007B00069837A838B839C832D833E834F83588701
:1007C0008E01075F1F4FCE010196B8010E940D06F2
:1007D00091E1E92EF12CEC0EFD1ECE010596B7013C
:1007E0000E940D068A8991E089278A8BC801B7018A
:1007F000AE01475E5F4F0E945B020E943F05A096DC
:10080000E6E00C941E07A8E1B0E0E9E0F4E00C9407
:10081000020769837A838B839C832D833E834F8376
:1008200058878E01075F1F4FCE010196B8010E94C5
:100830000D0681E1E82EF12CEC0EFD1ECE01059691
:10084000B7010E940D068985823040F08989823087
:1008500028F0C801B7010E94760601C08FEF6896A4
:10086000E6E00C941E07A8E0B0E0E9E3F4E00C94A5
:1008700002077B018C0183E08983D801C7018827A7
:10088000B7FD83959927AA27BB27282F8A83E114D0
:10089000F1040105110519F482E0898337C08EE166
:1008A00090E09C838B83222389F080E0E81680E02F
:1008B000F80680E0080780E8180769F110950095B0
:1008C000F094E094E11CF11C011D111DED82FE82EB
:1008D0000F831887C801B7010E94E5049C012150CD
:1008E00030401216130694F4022E04C0EE0CFF1CC6
:1008F000001F111F0A94D2F7ED82FE820F83188722
:100900008EE190E0821B930B9C838B83CE0101963A
:100910000E943F0504C060E070E080E09FEC2896F4
:10092000E6E00C941E07ACE0B0E0E9E9F4E00C94DA
:10093000060769837A838B839C83CE010196BE016F
:100940006B5F7F4F0E940D068D81823081F1823076
:1009500070F1843021F48E81882369F10AC02F81DF
:10096000388537FD24C06E812F3131053CF0662378
:1009700011F120E030E040E050E821C08EE190E04D
:10098000821B930B29853A854B855C8504C056955F
:100990004795379527958A95D2F7662381F050952C
:1009A0004095309521953F4F4F4F5F4F08C020E055
:1009B00030E0A90104C02FEF3FEF4FEF5FE7B9012F
:1009C000CA012C96E2E00C942207AF92BF92CF921C
:1009D000DF92EF92FF920F931F937B018C0180E0D7
:1009E000E81680E0F80681E0080780E0180758F470
:1009F000EFEFEE16F1040105110509F090F480E027
:100A000090E0DC0117C0F0E0EF16F0E0FF06F0E048
:100A10000F07F1E01F0750F480E190E0A0E0B0E0A4
:100A200009C088E090E0A0E0B0E004C088E190E078
:100A3000A0E0B0E020E230E040E050E0281B390BBD
:100A40004A0B5B0B5701680104C0D694C794B79456
:100A5000A7948A95D2F7D601C501885C9E4FFC0108
:100A60008081281B310941095109C9011F910F914A
:100A7000FF90EF90DF90CF90BF90AF900895EF92EE
:100A8000FF920F931F93CF93DF93FC012481358155
:100A90004681578161818081823020F44061EFEF8F
:100AA000F0E0A3C0843009F49BC0823009F492C006
:100AB000211531054105510509F48FC00280F381EC
:100AC000E02D8FEFE238F8070CF05AC0C2E8DFEFF4
:100AD000CE1BDF0BCA31D1056CF579018A010C2ED2
:100AE00004C016950795F794E7940A94D2F781E02D
:100AF00090E0A0E0B0E00C2E04C0880F991FAA1F60
:100B0000BB1F0A94D2F70197A109B109822393234D
:100B1000A423B52321E030E040E050E00097A10598
:100B2000B10519F420E030E0A9012E293F29402B1E
:100B3000512B03C020E030E0A901DA01C9018F7711
:100B40009070A070B07080349105A105B10539F4A2
:100B500027FF09C0205C3F4F4F4F5F4F04C0215C0F
:100B60003F4F4F4F5F4FE1E0F0E0203080E038072B
:100B700080E0480780E4580728F5E0E0F0E022C074
:100B8000E038F1056CF5E158FF4FDA01C9018F77C4
:100B90009070A070B07080349105A105B10539F452
:100BA00027FF09C0205C3F4F4F4F5F4F04C0215CBF
:100BB0003F4F4F4F5F4F57FF05C0569547953795AD
:100BC0002795319687E056954795379527958A95CD
:100BD000D1F70BC0E0E0F0E005C0E0E0F0E005C0D8
:100BE000EFEFF0E020E030E0A9018E2F8795882715
:100BF0008795942F9F77679566276795E695E22EF0
:100C0000A92FA82BFE2FF62B622F732F8A2F9F2F31
:100C1000CDB7DEB7E6E00C941E07DC01FB012C919A
:100C200011963C91119712968C911297482F4F77FD
:100C300050E0982F991F9927991F13966C9113973D
:100C4000862F880F892B90E0661F6627661F6183B9
:100C5000009739F5211531054105510511F482E060
:100C600029C082E89FEF9383828367E0220F331FBE
:100C7000441F551F6A95D1F783E0808309C0220F76
:100C8000331F441F551F8281938101979383828371
:100C9000203080E0380780E0480780E4580778F388
:100CA00020C08F3F910579F421153105410551058B
:100CB00019F484E08083089544FF03C081E08083B9
:100CC00010C010820EC08F5790409383828383E0C0
:100CD000808387E0220F331F441F551F8A95D1F769
:100CE000506424833583468357830895FC01DB01D8
:100CF0009081923008F449C08C91823008F445C04C
:100D0000943051F461818430B1F511962C91119792
:100D100030E0261B310941C0843021F0923041F48B
:100D20008230B1F111968C9111978823A1F12DC0D9
:100D30006181823001F111968C9111976817D9F475
:100D40002281338112968D919C911397821793077C
:100D500094F028173907BCF02481358146815781EA
:100D600014968D919D910D90BC91A02D82179307A3
:100D7000A407B50718F4662341F00DC028173907FA
:100D80004A075B0728F4662331F021E030E005C014
:100D900020E030E002C02FEF3FEFC901089597FB3C
:100DA000092E07260AD077FD04D00CD006D00020EB
:100DB0001AF4709561957F4F0895F6F79095819597
:100DC0009F4F0895AA1BBB1B51E107C0AA1FBB1F61
:100DD000A617B70710F0A61BB70B881F991F5A95C7
:100DE000A9F780959095BC01CD0108952F923F926F
:100DF0004F925F926F927F928F929F92AF92BF922B
:100E0000CF92DF92EF92FF920F931F93CF93DF93D6
:100E1000CDB7DEB7CA1BDB0B0FB6F894DEBF0FBE33
:100E2000CDBF09942A88398848885F846E847D8480
:100E30008C849B84AA84B984C884DF80EE80FD8082
:100E40000C811B81AA81B981CE0FD11D0FB6F894F8
:0E0E5000DEBF0FBECDBFED010895F894FFCFB9
:100E5E005374617274696E67204D4952434F0A5044
:100E6E0075736820427574746F6E21210A00427585
:100E7E0074746F6E205075736865642E2E2E0A0082
:100E8E000000000000000000000102020303030343
:100E9E0004040404040404040505050505050505FC
:100EAE0005050505050505050606060606060606DC
:100EBE0006060606060606060606060606060606C4
:100ECE0006060606060606060707070707070707AC
:100EDE000707070707070707070707070707070794
:100EEE000707070707070707070707070707070784
:100EFE000707070707070707070707070707070774
:100F0E00070707070707070708080808080808085B
:100F1E000808080808080808080808080808080843
:100F2E000808080808080808080808080808080833
:100F3E000808080808080808080808080808080823
:100F4E000808080808080808080808080808080813
:100F5E000808080808080808080808080808080803
:100F6E0008080808080808080808080808080808F3
:100F7E0008080808080808080808080808080808E3
:080F8E0008080808080808081B
:00000001FF
