:100000000C9438000C9442000C9442000C94420072
:100010000C9442000C9442000C9442000C94420058
:100020000C9442000C9442000C9442000C94420048
:100030000C9442000C9442000C9442000C94420038
:100040000C9442000C9442000C9442000C94420028
:100050000C9442000C9442000C9442000C94420018
:100060000C9442000C9442000C9442000C94420008
:1000700011241FBECFEFD0E1DEBFCDBF0E944400F0
:100080000C945E000C9400008FEF81B984B987B99D
:100090008AB918B82FEF34E34CE02150304040408B
:1000A000E1F700C0000088B92FEF34E34CE02150A5
:1000B00030404040E1F700C00000EBCFF894FFCFA4
:00000001FF
