:100000000C9438000C94A9000C94F2000C94550048
:100010000C9455000C9455000C9455000C9455000C
:100020000C9455000C9455000C9455000C945500FC
:100030000C9455000C9455000C9455000C945500EC
:100040000C9455000C9455000C9455000C945500DC
:100050000C9455000C9455000C9455000C945500CC
:100060000C9455000C9455000C9455000C945500BC
:1000700011241FBECFEFD0E1DEBFCDBF19E2A0E05B
:10008000B1E0EEECF3E002C005900D92A03AB107AA
:10009000D9F719E2A0EAB9E201C01D92A43BB10769
:1000A000E1F70E946F000C94E5010C94000011B878
:1000B0008FE787B982E38AB98FEF84B9E89AE9E6D6
:1000C000F0E08081816080838081808383EA84BDC9
:1000D00081E085BD8AE087BD88EC88BD08950E94D7
:1000E000570078948FEF94E3ACE081509040A040AB
:1000F000E1F700C0000046988FEF94E3ACE0815038
:100100009040A040E1F700C00000469AEBCF482F96
:100110006536710570F42FEF30E0629FC001639F78
:10012000900D729F900D112464E670E00E94BE0154
:1001300002C060E070E04C3429F470938900609351
:1001400088000895423521F470938B0060938A00F3
:1001500008951F920F920FB60F9211248F939F93C1
:10016000AF93BF934A9B35C04E991AC081E090E08F
:100170009093A1298093A0298091A2299091A329ED
:10018000A091A429B091A5290196A11DB11D80932C
:10019000A2299093A329A093A429B093A52919C0BB
:1001A0008FEF9FEF9093A1298093A0298091A6299A
:1001B0009091A729A091A829B091A9290196A11DE4
:1001C000B11D8093A6299093A729A093A829B09345
:1001D000A929BF91AF919F918F910F900FBE0F9062
:1001E0001F9018951F920F920FB60F9211248F93A4
:1001F0009F93AF93BF934B9B35C04F991AC081E03B
:1002000090E09093AB298093AA298091AC2990919A
:10021000AD29A091AE29B091AF290196A11DB11DC4
:100220008093AC299093AD29A093AE29B093AF29C8
:1002300019C08FEF9FEF9093AB298093AA298091EB
:10024000B0299091B129A091B229B091B32901961A
:10025000A11DB11D8093B0299093B129A093B2291B
:10026000B093B329BF91AF919F918F910F900FBE23
:100270000F901F90189590917C00982B90937C0084
:1002800080917C00806480937C008BEE80937A0068
:1002900001C0000080917A0084FFFBCF80917A003A
:1002A000806180937A002091780030917900C901B3
:1002B0000895FF920F931F93CF93DF93EC0148E2D1
:1002C000F42E00E010E0CE010E943B01080F191F40
:1002D000FA94C9F7C80168E270E00E94BE01C1301B
:1002E000D10529F1C230D1051CF4209781F02BC033
:1002F000C230D10521F0C330D10529F510C0FB0172
:10030000EE0FFF1FEE0FFF1FE050FF4F17C0FB0166
:10031000EE0FFF1FEE0FFF1FE85DF44F0FC0FB0154
:10032000EE0FFF1FEE0FFF1FE05BFA4E07C0FB0151
:10033000EE0FFF1FEE0FFF1FE858F04E20813181B6
:100340004281538103C02FEF3FEFA901B901CA01D8
:10035000DF91CF911F910F91FF900895409A41989E
:1003600041984298439A08954098419A429A4398F6
:1003700008954098419842984398089597FB092E14
:1003800007260AD077FD04D00CD006D000201AF43E
:10039000709561957F4F0895F6F7909581959F4FE1
:1003A0000895AA1BBB1B51E107C0AA1FBB1FA617BC
:1003B000B70710F0A61BB70B881F991F5A95A9F70E
:0E03C00080959095BC01CD010895F894FFCF73
:1003CE0084803200263314007BD10B005B140800AE
:1003DE00F703060022BA040007DB03004D3B0300BF
:1003EE0003C40200F4670200091F020007E40100C3
:1003FE006DB30100CB8A010060680100E74A01007D
:10040E006B310100311B0100A80701005FF60000EF
:10041E00FBE6000034D90000CFCC00009AC10000EA
:10042E006EB700002AAE0000B0A50000E99D0000E6
:10043E00C096000025900000078A00005B84000033
:10044E00147F0000297A00009275000045710000AB
:10045E003E6D000075690000E66500008B620000CD
:10046E00615F0000635C00008F590000E0560000E1
:10047E0055540000EB5100009F4F0000704D0000DE
:10048E005B4B00005E49000079470000A945000063
:10049E00EE43000045420000AF400000293F00003F
:1004AE00B33D00004C3C0000F33A0000A8390000B8
:1004BE0069380000353700000E360000F0340000B9
:1004CE00DE330000D4320000D4310000DD300000F5
:1004DE00EE2F0000062F0000272E00004E2D0000EC
:1004EE007D2C0000B22B0000ED2A00002E2A000009
:1004FE0075290000C2280000132800006A2700009A
:10050E00C6260000262600008B250000F4240000DD
:10051E0061240000D223000047230000C022000007
:10052E003C220000BB2100003E210000C420000040
:10053E004D200000D91F0000681F0000F91E0000AA
:10054E008D1E0000241E0000BD1D0000591D000060
:10055E00F61C0000961C0000391C0000DD1B00007C
:10056E00831B00002C1B0000D61A0000821A00000C
:10057E00301A0000DF190000901900004319000026
:10058E00F8180000AE180000651800001E180000D4
:10059E00D817000094170000511700001017000024
:1005AE00CF1600009016000052160000151600001F
:1005BE00D91500009F150000651500002D150000CF
:1005CE00F5140000BF14000089140000551400003B
:1005DE0021140000EE130000BC1300008B1300006A
:1005EE005B1300002C130000FD120000CF12000060
:1005FE00A2120000761200004A1200001F12000024
:10060E00F5110000CB110000A21100007A110000BC
:10061E00521100002B11000005110000DF10000028
:10062E00BA10000095100000711000004D1000006F
:10063E002A10000008100000E60F0000C40F000092
:10064E00A30F0000820F0000620F0000420F000097
:10065E00230F0000040F0000E60E0000C80E00007D
:10066E00AA0E00008D0E0000700E0000540E000049
:10067E00380E00001C0E0000010E0000E60D0000FA
:10068E00CC0D0000B10D0000980D00007E0D000095
:10069E00650D00004C0D0000330D00001B0D000019
:1006AE00030D0000EB0C0000D40C0000BD0C00008C
:1006BE00A60C0000900C0000790C0000630C0000EA
:1006CE004E0C0000380C0000230C00000E0C000035
:1006DE00FA0B0000E50B0000D10B0000BD0B000073
:1006EE00A90B0000960B0000820B00006F0B0000A0
:1006FE005C0B00004A0B0000370B0000250B0000BE
:10070E00130B0000010B0000F00A0000DE0A0000CF
:10071E00CD0A0000BC0A0000AB0A00009A0A0000D5
:10072E008A0A0000790A0000690A0000590A0000CE
:10073E00490A00003A0A00002A0A00001B0A0000BB
:10074E000C0A0000FD090000EE090000DF090000A0
:10075E00D0090000C2090000B4090000A60900007B
:10076E00980900008A0900007C0900006E0900004B
:10077E006109000054090000460900003909000013
:10078E002C090000200900001309000006090000D2
:10079E00FA080000ED080000E1080000D50800008E
:1007AE00C9080000BD080000B1080000A60800003E
:1007BE009A0800008F0800008308000078080000E7
:1007CE006D08000062080000570800004C08000089
:1007DE0041080000370800002C0800002208000025
:1007EE00170800000D08000003080000F9070000BC
:1007FE00EF070000E5070000DB070000D10700004F
:10080E00C8070000BE070000B4070000AB070000D9
:10081E00A2070000980700008F070000860700005F
:10082E007D070000740700006B07000062070000E0
:10083E00590700005107000048070000400700005C
:10084E00370700002F070000260700001E070000D4
:10085E00160700000E07000006070000FE06000047
:10086E00F6060000EE060000E6060000DE060000BA
:10087E00D6060000CF060000C7060000C006000026
:10088E00B8060000B1060000A9060000A20600008E
:10089E009B060000930600008C06000085060000F3
:1008AE007E06000077060000700600006906000054
:1008BE00630600005C060000550600004E060000B0
:1008CE0048060000410600003A060000340600000B
:1008DE002E06000027060000210600001A06000062
:1008EE00140600000E0600000806000002060000B6
:1008FE00FC050000F5050000EF050000E90500000D
:10090E00E4050000DE050000D8050000D205000059
:10091E00CC050000C6050000C1050000BB050000A7
:10092E00B5050000B0050000AA050000A5050000F1
:10093E009F0500009A050000950500008F05000038
:10094E008A050000850500007F0500007A0500007D
:10095E0075050000700500006B05000066050000BF
:10096E00600500005B050000560500005105000003
:10097E004D05000048050000430500003E0500003F
:10098E003905000034050000300500002B0500007D
:10099E0026050000220500001D05000018050000B8
:1009AE00140500000F0500000B05000006050000F1
:1009BE0002050000FD040000F9040000F50400002B
:1009CE00F0040000EC040000E8040000E304000062
:1009DE00DF040000DB040000D7040000D204000096
:1009EE00CE040000CA040000C6040000C2040000C9
:1009FE00BE040000BA040000B6040000B2040000F9
:100A0E00AE040000AA040000A6040000A204000028
:100A1E009E0400009A040000970400009304000056
:100A2E008F0400008B040000880400008404000082
:100A3E00800400007C0400007904000075040000AE
:100A4E00720400006E0400006A04000067040000D7
:100A5E0063040000600400005C0400005904000000
:100A6E0055040000520400004E0400004B04000028
:100A7E004804000044040000410400003E0400004D
:100A8E003A04000037040000340400003004000073
:100A9E002D0400002A040000270400002404000096
:100AAE00200400001D0400001A04000017040000BA
:100ABE0014040000110400000E0400000B040000DA
:100ACE00080400000504000002040000FF030000FB
:100ADE00FC030000F9030000F6030000F30300001E
:100AEE00F0030000ED030000EA030000E70300003E
:100AFE00E4030000E1030000DF030000DC0300005C
:100B0E00D9030000D6030000D3030000D103000078
:100B1E00CE030000CB030000C8030000C603000094
:100B2E00C3030000C0030000BE030000BB030000AF
:100B3E00B8030000B6030000B3030000B0030000CA
:100B4E00AE030000AB030000A9030000A6030000E3
:100B5E00A4030000A10300009F0300009C030000FB
:100B6E009A03000097030000950300009203000013
:100B7E00900300008D0300008B030000880300002B
:100B8E008603000084030000810300007F03000041
:100B9E007C0300007A030000780300007503000058
:100BAE0073030000710300006F0300006C0300006C
:100BBE006A03000068030000650300006303000081
:100BCE00610300005F0300005D0300005A03000094
:100BDE0058030000560300005403000052030000A7
:100BEE004F0300004D0300004B03000049030000BB
:100BFE0047030000450300004303000041030000CB
:100C0E003F0300003D0300003A03000038030000DC
:100C1E0036030000340300003203000030030000EE
:100C2E002E0300002C0300002A03000028030000FE
:100C3E00260300002403000022030000200300000E
:100C4E001E0300001D0300001B030000190300001B
:100C5E00170300001503000013030000110300002A
:100C6E000F0300000D0300000C0300000A03000038
:100C7E000803000006030000040300000203000046
:100C8E0001030000FF020000FD020000FB02000055
:100C9E00F9020000F8020000F6020000F402000063
:100CAE00F2020000F1020000EF020000ED0200006F
:100CBE00EB020000EA020000E8020000E60200007B
:100CCE00E4020000E3020000E1020000DF02000087
:100CDE00DE020000DC020000DA020000D902000091
:100CEE00D7020000D5020000D4020000D20200009C
:100CFE00D1020000CF020000CD020000CC020000A5
:100D0E00CA020000C9020000C7020000C5020000AE
:100D1E00C4020000C2020000C1020000BF020000B7
:100D2E00BE020000BC020000BB020000B9020000BF
:100D3E00B8020000B6020000B4020000B3020000C8
:100D4E00B1020000B0020000AF020000AD020000D0
:100D5E00AC020000AA020000A9020000A7020000D7
:100D6E00A6020000A4020000A3020000A1020000DF
:100D7E00A00200009E0200009D0200009C020000E6
:100D8E009A020000990200009702000096020000ED
:100D9E0095020000930200009202000091020000F2
:100DAE008F0200008E0200008C0200008B020000F9
:100DBE008A020000880200008702000086020000FE
:100DCE008402000083020000820200008002000004
:100DDE007F0200007E0200007C0200007B02000009
:100DEE007A02000079020000FC351E008EC30C0052
:100DFE00FAB507008564050020160400FE410300C5
:100E0E0091B0020043470200D3F70100FBB9010085
:100E1E009A8801005B600100FC3E0100EA2201009D
:100E2E00020B01006CF6000089E40000DDD4000026
:100E3E0007C70000BCBA0000BFAF0000DFA500006E
:100E4E00F59C0000DE940000818D0000C586000038
:100E5E0098800000E97A0000AA750000CF700000AB
:100E6E004E6C00001D680000356400008E600000AE
:100E7E00235D0000EF590000EC56000016540000F0
:100E8E006B510000E54E0000824C0000404A00000D
:100E9E001C4800001446000026440000504200008A
:100EAE0090400000E53E00004E3D0000C93B0000B2
:100EBE00553A0000F03800009B3700005436000011
:100ECE001B350000EE330000CC320000B6310000BE
:100EDE00AB300000A92F0000B12E0000C22D000083
:100EEE00DB2C0000FD2B0000262B0000562A0000F4
:100EFE008D290000CB2800000F2800005A27000083
:100F0E00AA260000FF2500005A250000B924000083
:100F1E001E24000087230000F42200006622000039
:100F2E00DB21000055210000D220000053200000DC
:100F3E00D71F00005F1F0000EA1E0000771E000092
:100F4E00081E00009C1D0000321D0000CB1C00007E
:100F5E00661C0000041C0000A51B0000471B0000BF
:100F6E00EC1A0000931A00003C1A0000E71900006A
:100F7E009319000042190000F3180000A518000094
:100F8E00591800000E180000C61700007E1700004A
:100F9E0039170000F4160000B1160000701600009C
:100FAE002F160000F0150000B31500007615000096
:100FBE003B15000001150000C8140000901400003D
:100FCE005914000023140000EE130000BA130000A1
:100FDE00871300005513000024130000F4120000C4
:100FEE00C412000096120000681200003B120000AE
:100FFE000E120000E3110000B81100008E11000067
:10100E00651100003C11000014110000ED100000ED
:10101E00C6100000A01000007B100000561000004B
:10102E00311000000E100000EA0F0000C80F000083
:10103E00A60F0000840F0000630F0000420F000097
:10104E00220F0000020F0000E30E0000C50E00008C
:10105E00A60E0000880E00006B0E00004E0E000063
:10106E00310E0000150E0000F90D0000DE0D00001F
:10107E00C30D0000A80D00008E0D0000740D0000C1
:10108E005A0D0000410D0000280D00000F0D00004C
:10109E00F70C0000DF0C0000C80C0000B00C0000C4
:1010AE00990C0000820C00006C0C0000560C000025
:1010BE00400C00002A0C0000150C0000000C000073
:1010CE00EB0B0000D60B0000C20B0000AE0B0000B5
:1010DE009A0B0000860B0000730B0000600B0000E3
:1010EE004D0B00003A0B0000280B0000150B000002
:1010FE00030B0000F10A0000E00A0000CE0A000017
:10110E00BD0A0000AC0A00009B0A00008A0A00001B
:10111E007A0A0000690A0000590A0000490A000014
:10112E003A0A00002A0A00001A0A00000B0A000000
:10113E00FC090000ED090000DE090000D0090000E6
:10114E00C1090000B3090000A409000096090000BF
:10115E00880900007B0900006D090000600900008D
:10116E005209000045090000380900002B09000053
:10117E001E0900001109000005090000F808000012
:10118E00EC080000E0080000D4080000C8080000C9
:10119E00BC080000B0080000A40800009908000078
:1011AE008D08000082080000770800006C0800001F
:1011BE0061080000560800004B08000040080000BF
:1011CE00350800002B08000020080000160800005B
:1011DE000C08000002080000F8070000EE070000EF
:1011EE00E4070000DA070000D0070000C707000080
:1011FE00BD070000B4070000AA070000A107000009
:10120E00980700008F070000860700007D0700008A
:10121E00740700006B07000062070000590700000A
:10122E005107000048070000400700003707000084
:10123E002F070000270700001E07000016070000FA
:10124E000E07000006070000FE060000F60600006E
:10125E00EE060000E7060000DF060000D7060000DD
:10126E00D0060000C8060000C1060000B906000046
:10127E00B2060000AB060000A40600009C060000AB
:10128E00950600008E06000087060000800600000E
:10129E0079060000720600006C060000650600006C
:1012AE005E06000057060000510600004A060000C8
:1012BE00440600003D060000370600003006000020
:1012CE002A060000240600001E0600001706000075
:1012DE00110600000B06000005060000FF050000C9
:1012EE00F9050000F3050000ED050000E70500001C
:1012FE00E2050000DC050000D6050000D005000068
:10130E00CB050000C5050000C0050000BA050000B1
:10131E00B4050000AF050000AA050000A4050000FA
:10132E009F0500009A050000940500008F0500003F
:10133E008A050000850500007F0500007A05000083
:10134E0075050000700500006B05000066050000C5
:10135E00610500005C050000570500005305000004
:10136E004E05000049050000440500003F05000041
:10137E003B05000036050000310500002D0500007C
:10138E0028050000240500001F0500001B050000B5
:10139E0016050000120500000D05000009050000ED
:1013AE000505000000050000FC040000F804000024
:1013BE00F3040000EF040000EB040000E70400005B
:1013CE00E3040000DE040000DA040000D60400008E
:1013DE00D2040000CE040000CA040000C6040000BF
:1013EE00C2040000BE040000BA040000B6040000EF
:1013FE00B3040000AF040000AB040000A70400001B
:10140E00A3040000A00400009C0400009804000047
:10141E0094040000910400008D0400008904000073
:10142E0086040000820400007F0400007B0400009C
:10143E007804000074040000710400006D040000C4
:10144E006A04000066040000630400005F040000EC
:10145E005C04000059040000550400005204000012
:10146E004F0400004B040000480400004504000037
:10147E00420400003E0400003B040000380400005B
:10148E0035040000320400002E0400002B0400007E
:10149E002804000025040000220400001F040000A0
:1014AE001C040000190400001604000013040000C0
:1014BE00100400000D0400000A04000007040000E0
:1014CE000404000001040000FE030000FB03000002
:1014DE00F9030000F6030000F3030000F003000020
:1014EE00ED030000EB030000E8030000E50300003D
:1014FE00E2030000E0030000DD030000DA03000059
:10150E00D7030000D5030000D2030000CF03000074
:10151E00CD030000CA030000C8030000C50300008D
:10152E00C2030000C0030000BD030000BB030000A7
:10153E00B8030000B6030000B3030000B1030000BF
:10154E00AE030000AC030000A9030000A7030000D7
:10155E00A4030000A20300009F0300009D030000EF
:10156E009B03000098030000960300009303000005
:10157E00910300008F0300008C0300008A0300001B
:10158E008803000085030000830300008103000030
:10159E007F0300007C0300007A0300007803000044
:1015AE007603000073030000710300006F03000058
:1015BE006D0300006B03000068030000660300006B
:1015CE006403000062030000600300005E0300007D
:1015DE005C0300005A03000057030000550300008F
:1015EE0053030000510300004F0300004D030000A1
:1015FE004B030000490300004703000045030000B1
:10160E0043030000410300003F0300003D030000C0
:10161E003B030000390300003703000035030000D0
:10162E0033030000310300002F0300002E030000DF
:10163E002C0300002A0300002803000026030000EC
:10164E002403000022030000200300001F030000FB
:10165E001D0300001B030000190300001703000008
:10166E001503000014030000120300001003000015
:10167E000E0300000C0300000B0300000903000022
:10168E00070300000503000004030000020300002E
:10169E0000030000FF020000FD020000FB0200003C
:1016AE00F9020000F8020000F6020000F402000049
:1016BE00F3020000F1020000EF020000EE02000053
:1016CE00EC020000EA020000E9020000E70200005E
:1016DE00E6020000E4020000E2020000E102000067
:1016EE00DF020000DE020000DC020000DA02000071
:1016FE00D9020000D7020000D6020000D40200007A
:10170E00D3020000D1020000D0020000CE02000081
:10171E00CD020000CB020000C9020000C80200008A
:10172E00C6020000C5020000C4020000C202000092
:10173E00C1020000BF020000BE020000BC02000099
:10174E00BB020000B9020000B8020000B6020000A1
:10175E00B5020000B4020000B2020000B1020000A7
:10176E00AF020000AE020000AC020000AB020000AF
:10177E00AA020000A8020000A7020000A6020000B4
:10178E00A4020000A3020000A1020000A0020000BB
:10179E009F0200009D0200009C0200009B020000C0
:1017AE0099020000980200009702000095020000C6
:1017BE0094020000930200009202000090020000CA
:1017CE008F0200008E0200008C0200008B020000CF
:1017DE008A020000890200008702000086020000D3
:1017EE0085020000840200008202000081020000D7
:1017FE00800200007F0200007D0200007C020000DB
:10180E007B0200007A0200007802000077020000DE
:10181E00DE3F0500927C02002B9B0100892D01000A
:10182E0011ED0000C4C20000F2A40000D58E00002D
:10183E00CD7D00004B70000054650000425C00003E
:10184E00A1540000224E000088480000A84300006A
:10185E00613F0000973B0000373800003135000033
:10186E007732000000300000C12D0000B32B0000C5
:10187E00D2290000172800007D2600000325000055
:10188E00A32300005B2200002A2100000C20000090
:10189E00011F0000051E0000191D00003A1C00006B
:1018AE00681B0000A11A0000E519000032190000A3
:1018BE0089180000E81700004E170000BC16000043
:1018CE0031160000AC1500002D150000B3140000F9
:1018DE003F140000CF13000064130000FD1200003F
:1018EE009A1200003B120000E01100008811000067
:1018FE0033110000E11000009210000046100000AD
:10190E00FD0F0000B60F0000710F00002E0F00003B
:10191E00EE0E0000AF0E0000730E0000380E000039
:10192E00000E0000C80D0000930D00005F0D0000BA
:10193E002C0D0000FB0C0000CC0C00009D0C0000D8
:10194E00700C0000440C0000190C0000EF0B00009E
:10195E00C70B00009F0B0000790B0000530B00001B
:10196E002E0B00000A0B0000E70A0000C50A00005B
:10197E00A40A0000830A0000630A0000440A000063
:10198E00260A0000080A0000EB090000CE0900003C
:10199E00B2090000970900007C09000062090000EE
:1019AE00490900002F09000017090000FF08000078
:1019BE00E7080000D0080000B9080000A3080000E6
:1019CE008D08000078080000630800004E08000033
:1019DE003A0800002608000012080000FF07000069
:1019EE00EC070000DA070000C7070000B60700008A
:1019FE00A407000093070000820700007107000093
:101A0E006107000050070000410700003107000089
:101A1E00210700001207000003070000F506000072
:101A2E00E6060000D8060000CA060000BC0600004C
:101A3E00AF060000A1060000940600008706000015
:101A4E007B0600006E0600006206000055060000D0
:101A5E00490600003D060000320600002606000082
:101A6E001B0600001006000004060000FA05000028
:101A7E00EF050000E4050000DA050000CF050000C8
:101A8E00C5050000BB050000B1050000A70500005C
:101A9E009E050000940500008B05000081050000E6
:101AAE00780500006F050000660500005D0500006A
:101ABE00540500004C050000430500003B050000E6
:101ACE00320500002A050000220500001A0500005C
:101ADE00120500000A05000002050000FB040000CC
:101AEE00F3040000EC040000E4040000DD04000038
:101AFE00D6040000CE040000C7040000C00400009D
:101B0E00B9040000B3040000AC040000A5040000FA
:101B1E009E04000098040000910400008B04000055
:101B2E00850400007E0400007804000072040000AA
:101B3E006C04000066040000600400005A040000FB
:101B4E00540400004E04000048040000430400004A
:101B5E003D04000038040000320400002D04000093
:101B6E0027040000220400001D04000017040000DA
:101B7E00120400000D04000008040000030400001D
:101B8E00FE030000F9030000F4030000EF03000061
:101B9E00EA030000E5030000E1030000DC0300009F
:101BAE00D7030000D3030000CE030000CA030000D9
:101BBE00C5030000C1030000BC030000B803000011
:101BCE00B4030000AF030000AB030000A703000046
:101BDE00A30300009E0300009A030000960300007A
:101BEE00920300008E0300008A03000086030000AB
:101BFE00820300007F0300007B03000077030000D8
:101C0E00730300006F0300006C0300006803000004
:101C1E0064030000610300005D0300005A0300002E
:101C2E0056030000520300004F0300004C03000057
:101C3E004803000045030000410300003E0300007E
:101C4E003B030000370300003403000031030000A3
:101C5E002E0300002A0300002703000024030000C7
:101C6E00210300001E0300001B03000018030000E8
:101C7E0015030000120300000F0300000C03000008
:101C8E000903000006030000030300000003000028
:101C9E00FD020000FA020000F7020000F50200004B
:101CAE00F2020000EF020000EC020000EA02000067
:101CBE00E7020000E4020000E2020000DF02000082
:101CCE00DC020000DA020000D7020000D50200009C
:101CDE00D2020000CF020000CD020000CA020000B6
:101CEE00C8020000C5020000C3020000C1020000CD
:101CFE00BE020000BC020000B9020000B7020000E4
:101D0E00B5020000B2020000B0020000AE020000F8
:101D1E00AB020000A9020000A7020000A40200000E
:101D2E00A2020000A00200009E0200009C02000021
:101D3E009902000097020000950200009302000035
:101D4E00910200008F0200008D0200008A02000046
:101D5E008802000086020000840200008202000059
:101D6E00800200007E0200007C0200007A02000069
:101D7E007802000076020000740200007202000079
:101D8E00700200006E0200006D0200006B02000087
:101D9E006902000067020000650200006302000095
:101DAE00610200005F0200005E0200005C020000A3
:101DBE005A020000580200005602000055020000B0
:101DCE0053020000510200004F0200004E020000BC
:101DDE004C0200004A0200004902000047020000C7
:101DEE0045020000430200004202000040020000D3
:101DFE003F0200003D0200003B0200003A020000DC
:101E0E0038020000360200003502000033020000E6
:101E1E0032020000300200002F0200002D020000EE
:101E2E002B0200002A0200002802000027020000F8
:101E3E002502000024020000220200002102000000
:101E4E001F0200001E0200001C0200001B02000008
:101E5E001A0200001802000017020000150200000E
:101E6E001402000012020000110200001002000015
:101E7E000E0200000D0200000B0200000A0200001C
:101E8E000902000007020000060200000502000021
:101E9E00030200000202000001020000FF01000028
:101EAE00FE010000FD010000FB010000FA01000030
:101EBE00F9010000F8010000F6010000F501000034
:101ECE00F4010000F3010000F1010000F001000038
:101EDE00EF010000EE010000EC010000EB0100003C
:101EEE00EA010000E9010000E8010000E60100003F
:101EFE00E5010000E4010000E3010000E201000042
:101F0E00E0010000DF010000DE010000DD01000045
:101F1E00DC010000DB010000DA010000D801000046
:101F2E00D7010000D6010000D5010000D401000049
:101F3E00D3010000D2010000D1010000D001000049
:101F4E00CF010000CD010000CC010000CB0100004C
:101F5E00CA010000C9010000C8010000C70100004D
:101F6E00C6010000C5010000C4010000C30100004D
:101F7E00C2010000C1010000C0010000BF0100004D
:101F8E00BE010000BD010000BC010000BB0100004D
:101F9E00BA010000B9010000B8010000B70100004D
:101FAE00B6010000B5010000B4010000B30100004D
:101FBE00B2010000B1010000B0010000AF0100004D
:101FCE00AE010000AD010000AC010000AB0100004D
:101FDE00AB010000AA010000A9010000A801000049
:101FEE00A7010000A6010000A5010000A401000049
:101FFE00A3010000A2010000A1010000A101000048
:10200E00A00100009F0100009E0100009D01000044
:10201E009C0100009B0100009A0100009A01000043
:10202E009901000098010000970100009601000040
:10203E00950100009501000094010000930100003D
:10204E00920100009101000090010000900100003B
:10205E008F0100008E0100008D0100008C01000038
:10206E008C0100008B0100008A0100008901000034
:10207E008801000088010000870100008601000031
:10208E00850100008401000084010000830100002E
:10209E00820100008101000081010000800100002A
:1020AE007F0100007E0100007E0100007D01000026
:1020BE007C0100007B0100007B0100007A01000022
:1020CE00790100007801000078010000770100001E
:1020DE007601000076010000750100007401000019
:1020EE007301000073010000720100007101000015
:1020FE0071010000700100006F0100006F0100000F
:10210E006E0100006D0100006C0100006C0100000A
:10211E006B0100006A0100006A0100006901000005
:10212E006801000068010000670100006601000000
:10213E0066010000650100006401000064010000FA
:10214E0063010000630100006201000061010000F4
:10215E0061010000600100005F0100005F010000EE
:10216E005E0100005D0100005D0100005C010000E9
:10217E005C0100005B0100005A0100005A010000E2
:10218E0059010000580100005801000057010000DD
:10219E0057010000560100005501000055010000D6
:1021AE0054010000540100005301000052010000D0
:1021BE0052010000510100005101000050010000C9
:1021CE004F0100004F0100004E0100004E010000C3
:1021DE004D0100004D0100004C0100004B010000BC
:1021EE004B0100004A0100004A01000049010000B5
:1021FE0049010000480100004701000047010000AE
:10220E0046010000460100004501000045010000A6
:10221E00440100004401000043010000430100009E
:10222E004201000041010000410100004001000098
:10223E00400100003F010000B4C805008BB8020049
:10224E0016C00100AA47010008010100C9D2000012
:10225E003DB20000239A000099870000E978000043
:10226E00006D000028630000E35A0000D853000000
:10227E00C84D000082480000E1430000C93F000045
:10228E00253C0000E1380000F03500004733000027
:10229E00DB300000A52E00009E2C0000C12A00009D
:1022AE000929000071270000F7250000972400007F
:1022BE004F2300001C220000FC200000EE1F000037
:1022CE00F11E0000021E0000201D00004B1C00002D
:1022DE00811B0000C21A00000C1A000060190000D9
:1022EE00BB1800001F1800008A170000FB16000024
:1022FE0073160000F115000075150000FD140000A6
:10230E008B1400001D140000B31300004E130000C8
:10231E00EC1200008E12000033120000DC110000DF
:10232E008811000036110000E81000009C1000001B
:10233E00531000000C100000C70F0000840F0000A7
:10234E00440F0000050F0000C90E00008E0E0000A5
:10235E00550E00001E0E0000E80D0000B30D00002B
:10236E00810D00004F0D00001F0D0000F00C00004D
:10237E00C30C0000960C00006B0C0000410C00001A
:10238E00180C0000F00B0000C80B0000A20B0000A0
:10239E007D0B0000590B0000350B0000130B0000E5
:1023AE00F10A0000D00A0000AF0A0000900A0000F7
:1023BE00710A0000520A0000350A0000180A0000D7
:1023CE00FB090000E0090000C4090000AA09000092
:1023DE0090090000760900005D0900004409000024
:1023EE002C09000015090000FD080000E708000098
:1023FE00D0080000BA080000A508000090080000F0
:10240E007B08000067080000530800003F0800002A
:10241E002C0800001908000006080000F407000050
:10242E00E2070000D0070000BF070000AE07000063
:10243E009D0700008C0700007C0700006C07000061
:10244E005C0700004D0700003D0700002E0700004E
:10245E001F0700001107000003070000F40600002C
:10246E00E6060000D9060000CB060000BE060000FE
:10247E00B1060000A4060000970600008B060000BF
:10248E007E06000072060000660600005A06000076
:10249E004E06000043060000370600002C06000022
:1024AE0021060000160600000B06000001060000C3
:1024BE00F6050000EC050000E2050000D70500005F
:1024CE00CD050000C4050000BA050000B0050000EF
:1024DE00A70500009D050000940500008B05000077
:1024EE0082050000790500007005000068050000F7
:1024FE005F050000560500004E0500004605000071
:10250E003E050000350500002D05000025050000E4
:10251E001E050000160500000E0500000705000050
:10252E00FF040000F8040000F0040000E9040000BD
:10253E00E2040000DB040000D4040000CD0400001F
:10254E00C6040000BF040000B9040000B20400007D
:10255E00AC040000A50400009F04000098040000D5
:10256E00920400008C040000850400007F0400002B
:10257E0079040000730400006D040000680400007C
:10258E00620400005C0400005604000051040000C8
:10259E004B04000046040000400400003B04000011
:1025AE0035040000300400002B0400002504000058
:1025BE00200400001B04000016040000110400009B
:1025CE000C0400000704000002040000FD030000DC
:1025DE00F8030000F4030000EF030000EA0300001C
:1025EE00E6030000E1030000DD030000D803000055
:1025FE00D4030000CF030000CB030000C60300008D
:10260E00C2030000BE030000B9030000B5030000C2
:10261E00B1030000AD030000A9030000A5030000F4
:10262E00A10300009D030000990300009503000024
:10263E00910300008D030000890300008503000054
:10264E00820300007E0300007A0300007603000080
:10265E00730300006F0300006B03000068030000AB
:10266E0064030000610300005D0300005A030000D4
:10267E005603000053030000500300004C030000FB
:10268E004903000046030000420300003F03000020
:10269E003C03000039030000350300003203000044
:1026AE002F0300002C030000290300002603000066
:1026BE0023030000200300001D0300001A03000086
:1026CE001703000014030000110300000E030000A6
:1026DE000B030000080300000503000002030000C6
:1026EE0000030000FD020000FA020000F7020000E5
:1026FE00F5020000F2020000EF020000ED02000001
:10270E00EA020000E7020000E5020000E20200001B
:10271E00E0020000DD020000DA020000D802000034
:10272E00D5020000D3020000D0020000CE0200004D
:10273E00CB020000C9020000C7020000C402000064
:10274E00C2020000BF020000BD020000BB0200007A
:10275E00B8020000B6020000B4020000B20200008F
:10276E00AF020000AD020000AB020000A9020000A3
:10277E00A6020000A4020000A2020000A0020000B7
:10278E009E0200009C0200009902000097020000C9
:10279E009502000093020000910200008F020000DB
:1027AE008D0200008B0200008902000087020000EB
:1027BE008502000083020000810200007F020000FB
:1027CE007D0200007B02000079020000770200000B
:1027DE007502000073020000710200006F0200001B
:1027EE006E0200006C0200006A0200006802000027
:1027FE006602000064020000630200006102000035
:10280E005F0200005D0200005C0200005A02000040
:10281E00580200005602000055020000530200004C
:10282E00510200004F0200004E0200004C02000058
:10283E004A02000049020000470200004502000063
:10284E004402000042020000410200003F0200006C
:10285E003D0200003C0200003A0200003902000076
:10286E003702000035020000340200003202000080
:10287E00310200002F0200002E0200002C02000088
:10288E002B02000029020000280200002602000090
:10289E002502000023020000220200002102000097
:1028AE001F0200001E0200001C0200001B0200009E
:1028BE0019020000180200001702000015020000A5
:1028CE0014020000120200001102000010020000AB
:1028DE000E0200000D0200000C0200000A020000B1
:1028EE0009020000080200000602000005020000B6
:1028FE0004020000020200000102000000020000BB
:10290E00FF010000FD010000FC010000FB010000C2
:10291E00F9010000F8010000F7010000F6010000C7
:10292E00F5010000F3010000F2010000F1010000CA
:10293E00F0010000EE010000ED010000EC010000CE
:10294E00EB010000EA010000E9010000E7010000D0
:10295E00E6010000E5010000E4010000E3010000D3
:10296E00E2010000E0010000DF010000DE010000D6
:10297E00DD010000DC010000DB010000DA010000D7
:10298E00D9010000D7010000D6010000D5010000DA
:10299E00D4010000D3010000D2010000D1010000DB
:1029AE00D0010000CF010000CE010000CD010000DB
:1029BE00CC010000CB010000CA010000C9010000DB
:1029CE00C8010000C7010000C6010000C5010000DB
:1029DE00C4010000C3010000C2010000C1010000DB
:1029EE00C0010000BF010000BE010000BD010000DB
:1029FE00BC010000BB010000BA010000B9010000DB
:102A0E00B8010000B7010000B6010000B5010000DA
:102A1E00B4010000B3010000B2010000B1010000DA
:102A2E00B0010000AF010000AE010000AD010000DA
:102A3E00AC010000AC010000AB010000AA010000D7
:102A4E00A9010000A8010000A7010000A6010000D6
:102A5E00A5010000A4010000A4010000A3010000D4
:102A6E00A2010000A1010000A00100009F010000D2
:102A7E009E0100009E0100009D0100009C010000CF
:102A8E009B0100009A0100009901000098010000CE
:102A9E0098010000970100009601000095010000CA
:102AAE0094010000940100009301000092010000C7
:102ABE0091010000900100008F0100008F010000C5
:102ACE008E0100008D0100008C0100008C010000C1
:102ADE008B0100008A0100008901000088010000BE
:102AEE0088010000870100008601000085010000BA
:102AFE0085010000840100008301000082010000B6
:102B0E008201000081010000800100007F010000B1
:102B1E007F0100007E0100007D0100007C010000AD
:102B2E007C0100007B0100007A0100007A010000A8
:102B3E0079010000780100007701000077010000A4
:102B4E00760100007501000075010000740100009F
:102B5E00730100007301000072010000710100009A
:102B6E0070010000700100006F0100006E01000096
:102B7E006E0100006D0100006C0100006C01000090
:102B8E006B0100006A0100006A010000690100008B
:102B9E006801000068010000670100006701000085
:102BAE00660100006501000065010000640100007F
:102BBE00630100006301000062010000610100007A
:102BCE006101000060010000600100005F01000073
:102BDE005E0100005E0100005D0100005C0100006E
:102BEE005C0100005B0100005B0100005A01000067
:102BFE005901000059010000580100005801000061
:102C0E00570100005601000056010000550100005A
:102C1E005501000054010000530100005301000053
:102C2E00520100005201000051010000510100004C
:102C3E00500100004F0100004F0100004E01000046
:102C4E004E0100004D0100004D0100004C0100003E
:102C5E004B0100004B0100004A0100004A01000038
:00000001FF
