:100000000C9438000C9442000C9442000C94420072
:100010000C9442000C9442000C9442000C94420058
:100020000C9442000C9442000C9442000C94420048
:100030000C9442000C9442000C9442000C94420038
:100040000C9442000C9442000C9442000C94420028
:100050000C9442000C9442000C9442000C94420018
:100060000C9442000C9442000C9442000C94420008
:1000700011241FBECFEFD0E1DEBFCDBF0E94D40060
:100080000C94BC010C9400009091C00095FFFCCF33
:100090008093C600089511B88FE887B980EF8AB9B8
:1000A00081E88093800081E080938100EAE7F0E0BE
:1000B0008BEE8083ACE7B0E08C9180648C93808180
:1000C000806180830895CF93DF93C82FD92F05C017
:1000D000992787FD90950E94440089918823C1F754
:1000E000DF91CF9108958091C00087FFFCCF809170
:1000F000C60008959093C5008093C40088E1809362
:10010000C10086E08093C2000895482F65367105CE
:1001100070F42FEF30E0629FC001639F900D729FDB
:10012000900D112464E670E00E94780102C060E046
:1001300070E04C3429F4709389006093880008952E
:10014000423521F470938B0060938A000895409AA1
:1001500041985F985E9A08954098419A5F9A5E9898
:100160000895409841985F985E98089590917C001A
:10017000982B90937C0080917C00806480937C001D
:100180008BEE80937A0001C0000080917A0084FF9A
:10019000FBCF80917A00806180937A002091780073
:1001A00030917900C9010895CF92DF92EF92FF92CA
:1001B0000F931F93DF93CF93CDB7DEB72B970FB677
:1001C000F894DEBF0FBECDBF0E944B0083E390E0EA
:1001D0000E947A00409841985F985E9806C08FEC24
:1001E00097E00197F1F700C00000369BF8CFEE24AE
:1001F000FF2420E088E2C82ED12C8E010F5F1F4F14
:1002000009C080E090E02B870E94B600E80EF91E3E
:100210002B852F5F2832A8F3C701B6010E94640125
:10022000CB01B8014AE050E00E948B01C8010E9456
:1002300063008AE00E944400EE24FF2420E0E1CF26
:1002400020E030E006C02F5F3F4F82E08A95F1F753
:1002500000C03799F8CFC901089588B188B9479887
:1002600085E08A95F1F70000479A8DE08A95F1F7CD
:100270000000479888B188B90E94200108950F9323
:100280001F93CF93DF9304E110E0C0E0D0E00E9421
:100290002D01C80FD91F8FE097E20197F1F700C039
:1002A00000000150104099F7CE0164E170E00E9417
:1002B0007801CB016AE370E00E947801CB01DF9105
:1002C000CF911F910F910895AA1BBB1B51E107C04D
:1002D000AA1FBB1FA617B70710F0A61BB70B881FD6
:1002E000991F5A95A9F780959095BC01CD01089565
:1002F00097FB092E07260AD077FD04D0E5DF06D04C
:1003000000201AF4709561957F4F0895F6F7909547
:1003100081959F4F0895FB019F01E8944230C4F0FE
:100320004532B4F44A3029F497FB1EF49095819538
:100330009F4F642F77270E946401805D8A330CF001
:10034000895D8193CB010097A1F716F45DE251938B
:100350001082C9010C94AC01DC01FC01672F719182
:100360007723E1F7329704C07C916D93708362919B
:0C037000AE17BF07C8F30895F894FFCF44
:00000001FF
