:100000000C9438000C94E0000C9429010C945500D9
:100010000C9455000C9455000C9455000C9455000C
:100020000C9455000C9455000C9455000C945500FC
:100030000C9455000C9455000C9455000C949701A9
:100040000C9455000C9455000C9455000C945500DC
:100050000C9455000C9455000C9455000C945500CC
:100060000C9472010C9455000C9455000C9455009E
:1000700011241FBECFEFD0E1DEBFCDBF11E0A0E065
:10008000B1E0E6EDF4E002C005900D92AC32B107AC
:10009000D9F711E0ACE2B1E001C01D92A434B10780
:1000A000E1F70E94FE010C9469020C940000409A52
:1000B000419841984298439A089511B88FE787B9BB
:1000C00082E38AB98FEF84B983E08DBBE9E6F0E083
:1000D00080818360808380818C60808383EA84BD9B
:1000E00021E025BD8AE087BD88BDEAE7F0E0808198
:1000F00087608083ACE7B0E08C9180648C938081D2
:1001000080688083808188608083EFE6F0E0808172
:100110008160808387EF92EC9093850080938400C8
:10012000E1E8F0E0808183608083209340010895BE
:100130008091C00087FFFCCF8091C6000895909108
:10014000C00095FFFCCF8093C6000895CF93DF9346
:10015000C82FD92F02C00E949F0089918823D9F708
:10016000DF91CF9108959093C5008093C40088E1FA
:100170008093C10086E08093C2000895482F6536C1
:10018000710570F42FEF30E0629FC001639F900D06
:10019000729F900D112464E670E00E94420202C03A
:1001A00060E070E04C3429F470938900609388001B
:1001B0000895423521F470938B0060938A0008956E
:1001C0001F920F920FB60F9211248F939F93AF93AC
:1001D000BF934A9B35C04E991AC081E090E090933E
:1001E0002D0180932C0180912E0190912F01A091DF
:1001F0003001B09131010196A11DB11D80932E01F6
:1002000090932F01A0933001B093310119C08FEF6B
:100210009FEF90932D0180932C018091320190915A
:100220003301A0913401B09135010196A11DB11D9A
:100230008093320190933301A0933401B093350140
:10024000BF91AF919F918F910F900FBE0F901F9014
:1002500018951F920F920FB60F9211248F939F93B0
:10026000AF93BF934B9B35C04F991AC081E090E08C
:100270009093370180933601809138019091390134
:10028000A0913A01B0913B010196A11DB11D80934F
:10029000380190933901A0933A01B0933B0119C002
:1002A0008FEF9FEF909337018093360180913C014F
:1002B00090913D01A0913E01B0913F010196A11D99
:1002C000B11D80933C0190933D01A0933E01B093FA
:1002D0003F01BF91AF919F918F910F900FBE0F90F3
:1002E0001F9018951F920F920FB60F9211248F93A3
:1002F0009F93EF93FF938091780090917900909372
:10030000420180934101EAE7F0E080818F7B8083A6
:100310008081877F808381E080934301FF91EF910B
:100320009F918F910F900FBE0F901F9018951F9265
:100330000F920FB60F9211248F939F9380914001DB
:10034000882321F0469A1092400104C0469881E02B
:100350008093400187EF92EC909385008093840016
:100360009F918F910F900FBE0F901F901895109234
:10037000430190917C00907E90937C0090917C0052
:10038000982B90937C0080917A00886080937A000B
:1003900080917A00806480937A0001C0000080918F
:1003A00043018823D9F32091410130914201C901D1
:1003B000089590917C00982B90937C0080917C0014
:1003C000806880937C0001C0000080917A0084FFE7
:1003D000FBCF80917A00806180937A002091780031
:1003E00030917900C90108954098419A429A439802
:1003F000089540984198429843980895CF930E9459
:100400005D0083E390E00E94B3007894469880E01A
:1004100091E00E94A60006C08FEC97E00197F1F7EB
:1004200000C000003799F8CF469A8CE191E00E9415
:10043000A600CAE0C7BDC8BD80E090E00E94B70139
:1004400021E08D329207C4F481E090E00E94B70170
:1004500021E08D32920784F482E090E00E94B7019F
:1004600021E08D32920744F483E090E00E94B701CE
:1004700021E08D3292071CF00E945700DBCF0E94D2
:10048000F901D8CF97FB092E07260AD077FD04D0B3
:100490000CD006D000201AF4709561957F4F089516
:1004A000F6F7909581959F4F0895AA1BBB1B51E1CC
:1004B00007C0AA1FBB1FA617B70710F0A61BB70BD4
:1004C000881F991F5A95A9F780959095BC01CD0179
:0604D0000895F894FFCF2F
:1004D6004D6963726F20537461727465643A20507B
:1004E60075736820427574746F6E0A004275747471
:0C04F6006F6E205075736865640A00008A
:00000001FF
