:100000000C9438000C9436010C9469010C94550042
:100010000C9455000C9455000C9455000C9455000C
:100020000C9455000C9455000C9455000C945500FC
:100030000C9455000C9455000C9455000C94BF0181
:100040000C9455000C9455000C9455000C945500DC
:100050000C9455000C9455000C9455000C945500CC
:100060000C949A010C9455000C9455000C94550076
:1000700011241FBECFEFD0E1DEBFCDBF11E0A0E065
:10008000B1E0E8E1F5E002C005900D92AC32B107B5
:10009000D9F711E0ACE2B1E001C01D92A334B10781
:1000A000E1F70E94BD000C948A020C940000409A73
:1000B00041984298439A089511B88FE787B982E32F
:1000C0008AB98FEF84B993E09DBBE9E6F0E08081C7
:1000D0008360808380818C60808383EA84BD95BD4A
:1000E0008AE087BD88BDEAE7F0E080818760808391
:1000F000ACE7B0E08C9180648C93808180688083D1
:10010000808188608083EFE6F0E080818160808379
:1001100087EF92EC9093850080938400E1E8F0E013
:1001200080818360808381E080933B01089580918A
:10013000C00087FFFCCF8091C60008959091C00059
:1001400095FFFCCF8093C6000895CF93DF93C82F0F
:10015000D92F02C00E949E0089918823D9F7DF9190
:10016000CF9108959093C5008093C40088E1809357
:10017000C10086E08093C2000895EF92FF920F9332
:100180001F93DF93CF93CDB7DEB72A970FB6F894BE
:10019000DEBF0FBECDBF0E945C0083E390E00E94F3
:1001A000B2007894469880E091E00E94A50006C0D5
:1001B0008FEC97E00197F1F700C000003799F8CF76
:1001C000469A8CE191E00E94A5000E9457009AE0B7
:1001D000E92E8E010F5F1F4F84E6F82ED801EE2D19
:1001E0001D92EA95E9F78091390190913A01B801A1
:1001F0004AE050E00E945902C8010E94A5003799C8
:1002000003C0F7BCF8BC02C017BC18BC8AE00E944F
:100210009E008FE798E3A1E081509040A040E1F775
:1002200000C00000DBCF0895482F6536710570F4DB
:100230002FEF30E0629FC001639F900D729F900D81
:10024000112464E670E00E94320202C060E070E0B7
:100250004C3429F4709389006093880008954235E6
:1002600021F470938B0060938A0008951F920F927F
:100270000FB60F9211248F939F934A9B23C04E9BDE
:1002800011C081E090E090932D0180932C0146985D
:1002900080912E0190912F01019690932F018093D0
:1002A0002E0110C08FEF9FEF90932D0180932C01B2
:1002B000469A8091300190913101019690933101DD
:1002C000809330019F918F910F900FBE0F901F90E0
:1002D00018951F920F920FB60F9211248F939F9330
:1002E0004B9B21C04F9910C081E090E09093330167
:1002F0008093320180913401909135010196909361
:100300003501809334010FC08FEF9FEF909333013D
:10031000809332018091360190913701019690933C
:100320003701809336019F918F910F900FBE0F90F0
:100330001F9018951F920F920FB60F9211248F9352
:100340009F93EF93FF938091780090917900909321
:100350003D0180933C01EAE7F0E080818F7B808360
:100360008081877F808381E080934001FF91EF91BE
:100370009F918F910F900FBE0F901F9018951F9215
:100380000F920FB60F9211248F939F938091340197
:100390009091350190933A018093390180912E011B
:1003A00090912F0190933F0180933E01109235016F
:1003B0001092340110922F0110922E0187EF92ECCF
:1003C00090938500809384009F918F910F900FBE32
:1003D0000F901F9018951092400190917C00907E94
:1003E00090937C0090917C00982B90937C0080915E
:1003F0007A00886080937A0080917A00806480938C
:100400007A0001C00000809140018823D9F3209137
:100410003C0130913D01C901089590917C00982BD9
:1004200090937C0080917C00806880937C0001C068
:10043000000080917A0084FFFBCF80917A00806178
:1004400080937A002091780030917900C901089555
:100450004098419A429A439808954098419842980A
:100460004398089597FB092E07260AD077FD04D0FC
:100470000CD006D000201AF4709561957F4F089536
:10048000F6F7909581959F4F0895AA1BBB1B51E1EC
:1004900007C0AA1FBB1FA617B70710F0A61BB70BF4
:1004A000881F991F5A95A9F780959095BC01CD0199
:1004B0000895FB019F01E8944230C4F04532B4F442
:1004C0004A3029F497FB1EF4909581959F4F642F35
:1004D00077270E944502805D8A330CF0895D819305
:1004E000CB010097A1F716F45DE251931082C90188
:1004F0000C947A02DC01FC01672F71917723E1F7FC
:10050000329704C07C916D9370836291AE17BF07E0
:08051000C8F30895F894FFCF31
:100518004D6963726F20537461727465643A205038
:1005280075736820427574746F6E0A00427574742E
:0C0538006F6E205075736865640A000047
:00000001FF
