:100000000C9479000C9496000C9496000C94960035
:100010000C9496000C9496000C9496000C94960008
:100020000C9496000C9496000C9496000C949600F8
:100030000C9496000C9496000C9496000C949600E8
:100040000C9496000C9496000C9496000C949600D8
:100050000C9496000C9496000C9496000C949600C8
:100060000C9496000C9496000C9496000C949600B8
:1000700007634236B79BD8A71A39685618AEBAAB91
:10008000558C1D3CB7CC5763BD6DEDFD753EF61725
:100090007231BF000000803F08000000BE9224497A
:1000A000123EABAAAA2ABECDCCCC4C3E00000080AA
:1000B000BEABAAAAAA3E00000000BF000000803F1D
:1000C0000000000000084178D3BB4387D1133D19DD
:1000D0000E3CC3BD4282AD2B3E68EC8276BED98F0A
:1000E000E1A93E4C80EFFFBE01C4FF7F3F0000004E
:1000F000000011241FBECFEFD0E1DEBFCDBF12E064
:10010000A0E0B1E0EAE8F4E102C005900D92A83366
:10011000B107D9F712E0A8E3B2E001C01D92AC34F8
:10012000B107E1F70E94E8000C94430A0C94000028
:100130009091C00095FFFCCF8093C6000895409A2F
:1001400041985F985E9A08954098419A5F9A5E98A8
:100150000895409841985F985E98089511B88FE887
:1001600087B983E38AB981E88093800081E0809336
:100170008100EAE7F0E08BEE8083ACE7B0E08C91A1
:1001800080648C938081806180830895CF93DF9316
:10019000C82FD92F05C0992787FD90950E949800F8
:1001A00089918823C1F7DF91CF9108958091C00094
:1001B00087FFFCCF8091C60008959093C50080937F
:1001C000C40088E18093C10086E08093C200089556
:1001D000CF93DF930E94AE0083E390E00E94DD00A6
:1001E000409841985F985E9880E091E00E94C60038
:1001F00006C08FEC97E00197F1F700C00000369B36
:10020000F8CF8EE191E00E94C600C9EAD0E00E94DA
:100210009F008FEF94E3ACE081509040A040E1F765
:1002200000C00000FE0109958FEF93EDA0E381501F
:100230009040A040E1F700C000000E94A4008FEFB2
:1002400094E3ACE081509040A040E1F700C0000092
:10025000FE01099506C0AFECB7E01197F1F700C0B9
:100260000000369BF8CFD3CF482F6536710570F468
:100270002FEF30E0629FC001639F900D729F900D41
:10028000112464E670E00E946E0702C060E070E036
:100290004C3429F4709389006093880008954235A6
:1002A00021F470938B0060938A00089590917C00F4
:1002B000982B90937C0080917C00806480937C00DC
:1002C0008BEE80937A0001C0000080917A0084FF59
:1002D000FBCF80917A00806180937A002091780032
:1002E00030917900C9010895DF92EF92FF920F9348
:1002F0001F93CF93DF93EC0118E2DD24EE24FF245B
:1003000000E0CE010E9456019C01B901882777FDCB
:100310008095982F0E947E059B01AC016D2D7E2D4E
:100320008F2D902F0E947803D62EE72EF82E092FBE
:10033000115039F720E030E040E252E40E94D0044E
:10034000C130D10571F1C230D1051CF4209799F06C
:1003500035C0C230D10521F0C330D10579F516C0C2
:100360002CE437E349EA5FEB0E94CC0720E039E454
:1003700041E057E420C020EA3AE14FE95FEB0E94F8
:10038000CC0720E03EEA4AE956E415C027EE3BEFF1
:1003900049E85FEB0E94CC072DEC34E047E555E4DB
:1003A0000AC026E933E44BE85FEB0E94CC072AE958
:1003B00039EE4CE655E40E94D60304C060E070E0DC
:1003C00080E89FEBDF91CF911F910F91FF90EF900D
:1003D000DF90089520E030E006C02F5F3F4F82E0BD
:1003E0008A95F1F700C03799F8CFC901089588B10F
:1003F00088B9479885E08A95F1F70000479A8DE023
:100400008A95F1F70000479888B188B90E94EA01FF
:1004100008950F931F93CF93DF9304E110E0C0E0A2
:10042000D0E00E94F701C80FD91F8FE097E2019733
:10043000F1F700C000000150104099F7CE0164E1CF
:1004400070E00E946E07CB016AE370E00E946E07C5
:10045000CB01DF91CF911F910F910895A0E0B0E003
:10046000E4E3F2E00C949907FC01EA018081823018
:1004700008F438C1DB019C91923008F430C184301B
:1004800059F4943009F02EC1918111968C911197F5
:10049000981709F021C126C1943009F420C1923087
:1004A000B1F4823009F01EC1CA01AF0128E0DA01BF
:1004B0000D90AD01DC010D92CD012150C1F7DB01A2
:1004C00011968C9111979181892389830AC1823079
:1004D00009F405C1C280D380DB0112966D907C9037
:1004E000139724813581468157811496ED90FD90B4
:1004F0000D911C911797C601861997095C0197FF0A
:1005000004C0AA24BB24A81AB90AB0E2AB16B104ED
:100510000CF061C0181619066CF5370148010A2C59
:1005200004C096948794779467940A94D2F781E0F4
:1005300090E0A0E0B0E00A2C04C0880F991FAA1F29
:10054000BB1F0A94D2F70197A109B1098E219F21FF
:10055000A023B123EE24FF248701E3940097A10593
:10056000B10519F4EE24FF248701E628F7280829AD
:1005700019293CC00097D1F1CA0CDB1C39014A0192
:100580000A2C04C096948794779467940A94D2F7BF
:1005900081E090E0A0E0B0E00A2C04C0880F991F31
:1005A000AA1FBB1F0A94D2F70197A109B1098223A0
:1005B0009323A423B52321E030E040E050E00097EE
:1005C000A105B10519F420E030E0A9012629372959
:1005D000482959290BC06C147D0424F4EE24FF240F
:1005E000870104C0630120E030E0A9018181FB01A3
:1005F0009181891709F445C0882349F0D801C701C2
:10060000821B930BA40BB50B9C01AD0104C02E19EA
:100610003F09400B510B57FD04C01982DB82CA828F
:100620000BC081E08983DB82CA825095409530956A
:1006300021953F4F4F4F5F4F2C833D834E835F8308
:100640000DC0880F991FAA1FBB1F8C839D83AE838B
:10065000BF838A819B8101979B838A838C819D8143
:10066000AE81BF819C01AD012150304040405040DF
:100670002F3FEFEF3E07EFEF4E07EFE35E0708F384
:100680000BC08983DB82CA822E0D3F1D401F511F84
:100690002C833D834E835F8383E088832C813D815F
:1006A0004E815F8157FF1DC0DA01C90181709070D2
:1006B000A070B0705695479537952795822B932B50
:1006C000A42BB52B8C839D83AE83BF838A819B81B2
:1006D00001969B838A8305C0E0E3F1E003C0FB0140
:1006E00001C0FE01CF01CDB7DEB7EEE00C94B50737
:1006F000A0E2B0E0EEE7F3E00C94A10769837A830F
:100700008B839C832D833E834F83588789E0E82E1B
:10071000F12CEC0EFD1ECE010196B7010E940507DB
:100720008E010F5E1F4FCE010596B8010E9405078E
:10073000C701B801AE01475E5F4F0E942E020E94C2
:100740003806A096E6E00C94BD07A0E2B0E0EBEA24
:10075000F3E00C94A10769837A838B839C832D83B8
:100760003E834F8358878E01075F1F4FCE0101964E
:10077000B8010E94050791E1E92EF12CEC0EFD1E57
:10078000CE010596B7010E9405078A8991E0892765
:100790008A8BC801B701AE01475E5F4F0E942E02EF
:1007A0000E943806A096E6E00C94BD07A0E2B0E0F7
:1007B000ECEDF3E00C94950769837A838B839C833B
:1007C0002D833E834F835887CE010196BE01675F1C
:1007D0007F4F0E940507CE010596BE016F5E7F4FD9
:1007E0000E9405079985923078F089898230C0F09F
:1007F000943019F4823041F4CBC0843019F4923033
:1008000079F4C6C0923051F481E02A859A8929177B
:1008100009F480E08A87CE010996BCC0823051F489
:1008200081E02A859A89291709F480E08A8BCE0114
:100830004196B0C06D847E848F849888ED88FE8850
:100840000F89188DE0E2F0E080E090E0DC01AA245E
:10085000BB24650120E030E0A901B3016170707034
:1008600061157105D1F02E0D3F1D401F511F15015F
:100870002601280E391E4A1E5B1E81E090E0A0E092
:10088000B0E02E153F054007510718F080E090E0DA
:10089000DC01820D931DA41DB51DAA0CBB1CCC1C34
:1008A000DD1C17FF09C061E0262E312C412C512C94
:1008B000A228B328C428D528319749F0EE0CFF1C94
:1008C000001F111F9694879477946794C6CF6B8905
:1008D0007C89EB85FC856E0F7F1F6E5F7F4F7C8F61
:1008E0006B8F61E0EA857A89E71709F460E06A8F27
:1008F0006B8D7C8D10C0FC01E170F070309729F099
:1009000056954795379527955068B695A79597952D
:1009100087956F5F7F4FB7FDEECF0CC0880F991F93
:10092000AA1FBB1F57FD8160220F331F441F551F95
:10093000615070408030E0E09E07E0E0AE07E0E408
:10094000BE0760F36B8F7C8F6FE7E62EF12C012DD5
:10095000112DE822F9220A231B2360E4E616F10494
:100960000105110561F487FD0AC021153105410516
:10097000510529F0805C9F4FAF4FBF4F80788D8F1E
:100980009E8FAF8FB8A383E0898FCE01499602C0B6
:1009900080E391E00E943806A096E2E10C94B10752
:1009A000A8E1B0E0E6EDF4E00C949D0769837A835A
:1009B0008B839C832D833E834F8358878E01075FF3
:1009C0001F4FCE010196B8010E94050781E1E82E74
:1009D000F12CEC0EFD1ECE010596B7010E94050715
:1009E0009985923008F483C08989823008F47BC0ED
:1009F0002A853A8923272A87943011F0923021F4EE
:100A0000981709F06CC071C0843039F41D861E86B9
:100A10001F86188A1C861B866AC0823019F484E0FF
:100A2000898765C08B859C852B893C89821B930BAC
:100A30009C878B872D853E854F855889ED88FE885C
:100A40000F89188D2E153F054007510738F4220FE6
:100A5000331F441F551F01979C878B876FE170E000
:100A6000A12CB12CC12CA0E4DA2E80E090E0DC01B6
:100A70002E153F054007510740F08A299B29AC29D4
:100A8000BD292E193F09400B510BD694C794B7943A
:100A9000A794220F331F441F551F6150704041F728
:100AA0006FE7E62EF12C012D112DE822F9220A2301
:100AB0001B2360E4E616F1040105110561F487FDCE
:100AC0000AC0211531054105510529F0805C9F4F71
:100AD000AF4FBF4F80788D879E87AF87B88B8E01D1
:100AE000075F1F4F04C0870102C000E311E0C80187
:100AF0000E9438066896EAE00C94B907A8E0B0E0D6
:100B0000E4E8F5E00C94A1077B018C0183E0898384
:100B1000D801C7018827B7FD83959927AA27BB2746
:100B2000282F8A83E114F1040105110519F482E0EC
:100B3000898337C08EE190E09C838B83222389F0E8
:100B400080E0E81680E0F80680E0080780E81807F3
:100B500069F110950095F094E094E11CF11C011DE1
:100B6000111DED82FE820F831887C801B7010E9414
:100B7000DE059C01215030401216130694F4022E1B
:100B800004C0EE0CFF1C001F111F0A94D2F7ED8267
:100B9000FE820F8318878EE190E0821B930B9C836B
:100BA0008B83CE0101960E94380604C060E070E09D
:100BB00080E09FEC2896E6E00C94BD07AF92BF92D0
:100BC000CF92DF92EF92FF920F931F937B018C01E4
:100BD00080E0E81680E0F80681E0080780E018076A
:100BE00058F4EFEFEE16F1040105110509F090F449
:100BF00080E090E0DC0117C0F0E0EF16F0E0FF06C7
:100C0000F0E00F07F1E01F0750F480E190E0A0E072
:100C1000B0E009C088E090E0A0E0B0E004C088E166
:100C200090E0A0E0B0E020E230E040E050E0281B9F
:100C3000390B4A0B5B0B5701680104C0D694C7946B
:100C4000B794A7948A95D2F7D601C501885C9E4FC8
:100C5000FC018081281B310941095109C9011F91FB
:100C60000F91FF90EF90DF90CF90BF90AF900895DD
:100C7000EF92FF920F931F93CF93DF93FC01248198
:100C800035814681578161818081823020F44061C5
:100C9000EFEFF0E0A3C0843009F49BC0823009F488
:100CA00092C0211531054105510509F48FC002801C
:100CB000F381E02D7FEFE238F7070CF05AC0C2E86D
:100CC000DFEFCE1BDF0BCA31D1056CF579018A014C
:100CD0000C2E04C016950795F794E7940A94D2F762
:100CE00081E090E0A0E0B0E00C2E04C0880F991FD6
:100CF000AA1FBB1F0A94D2F70197A109B109822349
:100D00009323A423B52321E030E040E050E0009796
:100D1000A105B10519F420E030E0A9012E293F29F1
:100D2000402B512B03C020E030E0A901DA01C901BA
:100D30008F779070A070B07080349105A105B105D7
:100D400039F427FF09C0205C3F4F4F4F5F4F04C06D
:100D5000215C3F4F4F4F5F4FE1E0F0E0203080E0FB
:100D6000380780E0480780E4580728F5E0E0F0E025
:100D700022C0E038F1056CF5E158FF4FDA01C901F6
:100D80008F779070A070B07080349105A105B10587
:100D900039F427FF09C0205C3F4F4F4F5F4F04C01D
:100DA000215C3F4F4F4F5F4F57FF05C0569547950A
:100DB00037952795319687E056954795379527952E
:100DC0008A95D1F70BC0E0E0F0E005C0E0E0F0E08C
:100DD00005C0EFEFF0E020E030E0A9018E2F87950D
:100DE00088278795942F9F77679566276795E6955F
:100DF000A92FA82BFE2FF62B622F732F8A2F9F2F40
:100E0000CDB7DEB7E6E00C94BD07DC01FB012C9109
:100E100011963C91119712968C911297482F4F770B
:100E200050E0982F991F9927991F13966C9113974B
:100E3000862F880F892B90E0661F6627661F6183C7
:100E4000009739F5211531054105510511F482E06E
:100E500029C082E89FEF9383828367E0220F331FCC
:100E6000441F551F6A95D1F783E0808309C0220F84
:100E7000331F441F551F828193810197938382837F
:100E8000203080E0380780E0480780E4580778F396
:100E900020C08F3F910579F4211531054105510599
:100EA00019F484E08083089544FF03C081E08083C7
:100EB00010C010820EC08F5790409383828383E0CE
:100EC000808387E0220F331F441F551F8A95D1F777
:100ED00050642483358346835783089597FB092EF6
:100EE00007260AD077FD04D00CD006D000201AF4D3
:100EF000709561957F4F0895F6F7909581959F4F76
:100F00000895AA1BBB1B51E107C0AA1FBB1FA61750
:100F1000B70710F0A61BB70B881F991F5A95A9F7A2
:100F200080959095BC01CD0108952F923F924F92EC
:100F30005F926F927F928F929F92AF92BF92CF9269
:100F4000DF92EF92FF920F931F93CF93DF93CDB772
:100F5000DEB7CA1BDB0B0FB6F894DEBF0FBECDBFEA
:100F600009942A88398848885F846E847D848C84BB
:100F70009B84AA84B984C884DF80EE80FD800C81C4
:100F80001B81AA81B981CE0FD11D0FB6F894DEBFA7
:100F90000FBECDBFED010895FA01EE0FFF1F309691
:100FA0002105310599F16115710561F48038BFE3C0
:100FB0009B0749F168949038810561F08038BFEF54
:100FC0009B0741F0992342F5FF3FE10531052105DB
:100FD00011F1E8940894E795D901AA2329F4AB2FDD
:100FE000BE2FF85FD0F310C0FF5F70F4A695E0F756
:100FF000F73950F019F0FF3A38F49F779F930CD0EF
:101000000F9007FC905808953EF049C060E070E0F2
:1010100080E89FE308954FE79F775F934F933F9357
:101020002F93D0D02F913F914F915F91BFDB05C09F
:1010300019F40EF02EC07DC032C061D0C8F39638CE
:10104000C0F707F80F92E8942BE33AEA48EB5FE722
:1010500038D10F920F920F924DB75EB70F92F2D028
:10106000E0E7F0E01FD04F915F91EF91FF91E595A0
:10107000EE1FFF1F49F0FE57E0684427EE0F441FA4
:10108000FA95E1F74195550B64D00F9007FE58C0D3
:10109000089597F99F6780E870E060E008959FEFFA
:1010A00080EC0895DF93CF931F930F93FF92EF92FD
:1010B000DF927B018C01689405C0DA2EEF01FFD02E
:1010C000FE01E894A5912591359145915591AEF396
:1010D000EF0159D1FE019701A801DA9479F7DF9069
:1010E000EF90FF900F911F91CF91DF91089557FDE1
:1010F0009058440F551F59F05F3F71F04795880F86
:1011000097FB991F61F09F3F79F08795089512161C
:1011100013061406551FF2CF4695F1DF08C01616C8
:1011200017061806991FF1CF869571056105089479
:101130000895E894BB2766277727CB0197F9089590
:101140009B01AC0160E070E080E89FE329CCA1CF77
:101150006DC1D5DFE8F39923D9F3940F511DBBF38B
:101160009150504094F059F0882332F0660F771F69
:10117000881F91505040C1F79E3F510544F7880F9A
:10118000911D9695879597F908955F3FACF0983E2D
:101190009CF0BB27869577956795B79508F4B16065
:1011A0009395C1F7BB0F58F711F460FFE8CF6F5F5D
:1011B0007F4F8F4F9F4FE3CFBDCF0EF037C16FCF23
:1011C000689467CF9CDFC8F39923D1F3C6F3DF930C
:1011D000CF931F930F93FF92C92FDD2788232AF007
:1011E0002197660F771F881FDAF720E030E040E88C
:1011F0005FEB9FE3883920F0803E30F021968F77B7
:1012000077DAE8E9F0E003C073DAE5ECF0E04ADF12
:101210008B01BE01EC01FB2E6F5771097595771F8D
:10122000880B990B6BDC28E132E741E35FE347D0A1
:10123000AF2D9801AE01FF900F911F91CF91DF91DB
:10124000A2D010C1FA01DC01AA0FBB1F9B01AC01A7
:10125000BF5728F422273327442750781FC0B7519F
:1012600088F4AB2F0024469537952795011CA3954C
:10127000D2F3002069F0220F331F441FB395DAF335
:101280000DD063CA61307105A0E88A07B94630F411
:101290009B01AC016627772788279078309621F04C
:1012A00020833183428353830895CED028F0D3D056
:1012B00018F0952309F0EDCEF2CE11243BCF17DFC5
:1012C000A0F3959FD1F3950F50E0551F629FF00159
:1012D000729FBB27F00DB11D639FAA27F00DB11DB2
:1012E000AA1F649F6627B00DA11D661F829F22273B
:1012F000B00DA11D621F739FB00DA11D621F839FC2
:10130000A00D611D221F749F3327A00D611D231F97
:10131000849F600D211D822F762F6A2F11249F57E5
:1013200050408AF0E1F088234AF0EE0FFF1FBB1F08
:10133000661F771F881F91505040A9F79E3F5105A7
:1013400070F0A7CEF7CE5F3FECF3983EDCF38695C6
:1013500077956795B795F795E7959F5FC1F7FE2B52
:10136000880F911D9695879597F908956DD030F067
:1013700072D020F031F49F3F11F41EF490CE0EF4A1
:10138000E095E7FB86CEE92FB2DE80F3BA1762075D
:1013900073078407950718F071F49EF5CACE0EF412
:1013A000E0950B2EBA2FA02D0B01B90190010C0175
:1013B000CA01A0011124FF27591B99F0593F50F48D
:1013C000503E68F11A16F040A22F232F342F4427E5
:1013D000585FF3CF469537952795A795F0405395DD
:1013E000C9F77EF41F16BA0B620B730B840BBAF0AD
:1013F0009150A1F0FF0FBB1F661F771F881FC2F718
:101400000EC0BA0F621F731F841F48F4879577952B
:101410006795B795F7959E3F08F0B3CF9395880FE2
:1014200008F09927EE0F9795879508959F3F31F023
:10143000915020F4879577956795B795880F911D02
:101440009695879597F9089500240A94161617061D
:1014500018060906089500240A94121613061406A5
:1014600005060895092E0394000C11F4882352F008
:10147000BB0F40F4BF2B11F460FF04C06F5F7F4FC0
:0A1480008F4F9F4F0895F894FFCF9F
:10148A005374617274696E67204D4952434F0A5012
:10149A0075736820427574746F6E21210A00427553
:1014AA0074746F6E205075736865642E2E2E0A0050
:1014BA000000000000000000000102020303030311
:1014CA0004040404040404040505050505050505CA
:1014DA0005050505050505050606060606060606AA
:1014EA000606060606060606060606060606060692
:1014FA00060606060606060607070707070707077A
:10150A000707070707070707070707070707070761
:10151A000707070707070707070707070707070751
:10152A000707070707070707070707070707070741
:10153A000707070707070707080808080808080829
:10154A000808080808080808080808080808080811
:10155A000808080808080808080808080808080801
:10156A0008080808080808080808080808080808F1
:10157A0008080808080808080808080808080808E1
:10158A0008080808080808080808080808080808D1
:10159A0008080808080808080808080808080808C1
:1015AA0008080808080808080808080808080808B1
:0815BA000808080808080808E9
:00000001FF
