:100000000C9438000C9442000C9442000C94420072
:100010000C9442000C9442000C9442000C94420058
:100020000C9442000C9442000C9442000C94420048
:100030000C9442000C9442000C9442000C94420038
:100040000C9442000C9442000C9442000C94420028
:100050000C9442000C9442000C9442000C94420018
:100060000C9442000C9442000C9442000C94420008
:1000700011241FBECFEFD0E1DEBFCDBF0E946B00C9
:100080000C9412010C940000409A41985F985E9A7B
:1000900008954098419A5F9A5E98089540984198D3
:1000A0005F985E98089511B88FE087B980EF8AB99C
:1000B00081E88093800081E080938100EAE7F0E0AE
:1000C0008BEE8083ACE7B0E08C9180648C93808170
:1000D000806180830895CF93DF930E9453004098FE
:1000E00041985F985E9806C089EF90E00197F1F71C
:1000F00000C00000369BF8CFCEE4D0E00E94440060
:100100008FE39DE0A3E081509040A040E1F700C064
:100110000000FE0109958FE39DE0A3E0815090402F
:10012000A040E1F700C000000E9449008FE39DE07D
:10013000A3E081509040A040E1F700C00000FE0124
:1001400009958FE39DE0A3E081509040A040E1F746
:1001500000C00000D3CF482F6536710570F42FEF33
:1001600030E0629FC001639F900D729F900D11243B
:1001700064E670E00E94EB0002C060E070E04C3486
:1001800029F470938900609388000895423521F422
:1001900070938B0060938A00089590917C00982B57
:1001A00090937C0080917C00806480937C008BEE37
:1001B00080937A0001C0000080917A0084FFFBCF19
:1001C00080917A00806180937A002091780030914C
:1001D0007900C901089597FB092E07260AD077FDFB
:1001E00004D00CD006D000201AF4709561957F4F92
:1001F0000895F6F7909581959F4F0895AA1BBB1B14
:1002000051E107C0AA1FBB1FA617B70710F0A61B16
:10021000B70B881F991F5A95A9F780959095BC0137
:08022000CD010895F894FFCF11
:00000001FF
