:100000000C9438000C9442000C9442000C94420072
:100010000C9442000C9442000C9442000C94420058
:100020000C9442000C9442000C9442000C94420048
:100030000C9442000C9442000C9442000C94420038
:100040000C9442000C9442000C9442000C94420028
:100050000C9442000C9442000C9442000C94420018
:100060000C9442000C9442000C9442000C94420008
:1000700011241FBECFEFD0E1DEBFCDBF0E944E00E6
:100080000C9493000C940000909389008093880056
:10009000089590938B0080938A0008958FEF81B923
:1000A00084B987B98AB993EA9093800093E09093DA
:1000B0008100809389008093880080938B008093D7
:1000C0008A008FEF9FEF0E9444008FEF9FEF0E9406
:1000D000490081E088B92FEF39E648E121503040EE
:1000E0004040E1F700C0000018B82FEF39E648E1C2
:1000F000215030404040E1F700C0000088B92FEFA8
:1001000039E648E1215030404040E1F700C00000AE
:1001100018B82FEF39E648E1215030404040E1F770
:0A01200000C00000D7CFF894FFCF15
:00000001FF
