:100000000C943E000C9402010C9463010C9450007B
:100010000C9450000C9450000C9450000C94500020
:100020000C9450000C9450000C9450000C94500010
:100030000C9450000C9450000C9450000C94500000
:100040000C9450000C9450000C9450000C945000F0
:100050000C9450000C9450000C9450000C945000E0
:100060000C94C0010C9450000C9450000C9450005F
:100070000C9450000C9450000C94500011241FBE9E
:10008000CFEFD0E1DEBFCDBF11E0A0E0B1E001C015
:100090001D92A731B107E1F70E94A6000C94BA02A5
:1000A0000C940000DF93CF93CDB7DEB7E1E2F0E030
:1000B0001082E7E2F0E08FE78083EAE2F0E082E39B
:1000C0008083E4E2F0E08FEF8083EDE3F0E083E013
:1000D0008083A9E6B0E0E9E6F0E0808183608C935C
:1000E000A9E6B0E0E9E6F0E080818C608C93E4E47E
:1000F000F0E083EA8083E5E4F0E081E08083E7E4F8
:10010000F0E08AE08083E8E4F0E088EC8083AAE70E
:10011000B0E0EAE7F0E0808187608C93ACE7B0E084
:10012000ECE7F0E0808180648C93AAE7B0E0EAE736
:10013000F0E0808180688C93AAE7B0E0EAE7F0E025
:10014000808188608C93CF91DF910895DF93CF9366
:10015000CDB7DEB70E945200789481E090E00E9413
:10016000F5010000000000000000000082E090E0C7
:100170000E94F501F6CFDF93CF9300D000D00F920D
:10018000CDB7DEB78B837D836C831A8219828C8115
:100190009D819923ECF08C819D8185369105C4F475
:1001A0004C815D81CA019C01220F331FC9019695C4
:1001B000982F882797958795821B930B840F951FFF
:1001C00024E630E0B9010E949302CB019A8389832F
:1001D0008B818C3431F4E8E8F0E089819A81918355
:1001E00080838B81823531F4EAE8F0E089819A815D
:1001F000918380830F900F900F900F900F90CF916D
:10020000DF9108951F920F920FB60F9211248F93D2
:100210009F93AF93BF93EF93FF93DF93CF93CDB7AC
:10022000DEB7E9E2F0E08081882F90E08470907082
:100230000097E1F1E9E2F0E08081882F90E080749E
:1002400090700097D1F481E090E090930101809349
:1002500000018091020190910301A0910401B091ED
:1002600005010196A11DB11D809302019093030128
:10027000A0930401B093050119C08FEF9FEF9093F5
:100280000101809300018091060190910701A091E6
:100290000801B09109010196A11DB11D80930601CD
:1002A00090930701A0930801B0930901CF91DF91CA
:1002B000FF91EF91BF91AF919F918F910F900FBEE2
:1002C0000F901F9018951F920F920FB60F92112446
:1002D0008F939F93AF93BF93EF93FF93DF93CF934E
:1002E000CDB7DEB7E9E2F0E08081882F90E088703A
:1002F00090700097C1F1E9E2F0E080818823D4F0AA
:1003000081E090E090930B0180930A0180910C01B1
:1003100090910D01A0910E01B0910F010196A11DC8
:10032000B11D80930C0190930D01A0930E01B09329
:100330000F0119C08FEF9FEF90930B0180930A017B
:100340008091100190911101A0911201B0911301BF
:100350000196A11DB11D8093100190931101A093EE
:100360001201B0931301CF91DF91FF91EF91BF91F3
:10037000AF919F918F910F900FBE0F901F90189586
:100380001F920F920FB60F9211248F939F93AF93EA
:10039000BF93EF93FF93DF93CF93CDB7DEB7E8E73B
:1003A000F0E0808191819093150180931401AAE778
:1003B000B0E0EAE7F0E080818F7B8C93AAE7B0E0C1
:1003C000EAE7F0E08081877F8C9381E080931601DB
:1003D000CF91DF91FF91EF91BF91AF919F918F915D
:1003E0000F900FBE0F901F901895DF93CF9300D002
:1003F00000D0CDB7DEB79A83898310921601ACE79F
:10040000B0E0ECE7F0E08081982F8981892B8C9314
:10041000AAE7B0E0EAE7F0E0808188608C93AAE781
:10042000B0E0EAE7F0E0808180648C9301C00000D6
:10043000809116018823D9F30F900F900F900F90A1
:10044000CF91DF910895DF93CF93CDB7DEB7A8E2C8
:10045000B0E0E8E2F0E0808181608C93A8E2B0E057
:10046000E8E2F0E080818D7F8C93A8E2B0E0E8E2E2
:10047000F0E080818D7F8C93A8E2B0E0E8E2F0E0CC
:1004800080818B7F8C93A8E2B0E0E8E2F0E080818D
:1004900088608C93CF91DF910895DF93CF93CDB790
:1004A000DEB7A8E2B0E0E8E2F0E080818E7F8C93D6
:1004B000A8E2B0E0E8E2F0E0808182608C93A8E2FC
:1004C000B0E0E8E2F0E0808184608C93A8E2B0E0E4
:1004D000E8E2F0E08081877F8C93CF91DF910895EF
:1004E000DF93CF93CDB7DEB7A8E2B0E0E8E2F0E06B
:1004F00080818E7F8C93A8E2B0E0E8E2F0E080811A
:100500008D7F8C93A8E2B0E0E8E2F0E080818B7F01
:100510008C93A8E2B0E0E8E2F0E08081877F8C93E2
:10052000CF91DF91089597FB092E07260AD077FD1A
:1005300004D00CD006D000201AF4709561957F4F3E
:100540000895F6F7909581959F4F0895AA1BBB1BC0
:1005500051E107C0AA1FBB1FA617B70710F0A61BC3
:10056000B70B881F991F5A95A9F780959095BC01E4
:08057000CD010895F894FFCFBE
:00000001FF
